:020000040000FA
:100000000C94DA000C9402010C9402010C9402018D
:100010000C9402010C9402010C9402010C94020154
:100020000C9402010C9402010C9402010C941D0A20
:100030000C9402010C9402010C9402010C94020134
:100040000C94D3090C9402010C94A1090C947B0923
:100050000C9402010C9402010C9402010C94020114
:100060000C94D90A0C94020100407A10F35A00A0B3
:10007000724E18090010A5D4E80000E87648170071
:1000800000E40B54020000CA9A3B000000E1F505B1
:10009000000080969800000040420F000000A086FB
:1000A00001000000102700000000E803000000002D
:1000B0006400000000000A000000000001000000D1
:1000C00000002C76D888DC674F0823DFC1DFAE59EB
:1000D000E1B1B796E5E3E453C63AE651997696E87E
:1000E000E6C28426EB898C9B62ED407C6FFCEFBC02
:1000F0009C9F40F2BAA56FA5F490055A2AF75C932D
:100100006B6CF9676DC11BFCE0E40D47FEF520E662
:10011000B500D0ED902E0300943577050080841E45
:10012000080000204E0A000000C80C333333330FA0
:10013000986E12831141EF8D2114893BE65516CF3D
:10014000FEE6DB18D1844B381BF77C1D901DA4BB49
:10015000E424203284725E228100C9F124ECA1E5FE
:100160003D27000000080002010000030407000012
:1001700000000000000000000000250028002B0007
:1001800000000000240027002A00040404040404E2
:100190000404020202020202030303030303010236
:1001A0000408102040800102040810200102040805
:1001B0001020F80B11241FBECFEFD8E0DEBFCDBF5B
:1001C00011E0A0E0B1E0EEEBFBE202C005900D9281
:1001D000A835B107D9F722E0A8E5B1E001C01D922A
:1001E000AC3FB207E1F710E0CAEDD0E004C02197C0
:1001F000FE010E94D613C93DD107C9F70E948D0C9C
:100200000C94DD150C94000090E0FC01E256FE4FCA
:10021000249186579E4FFC018491882399F090E0A9
:10022000880F991FFC01E058FE4FA591B491FC0185
:10023000EA58FE4F859194918FB7F894EC91E22B98
:10024000EC938FBF089508950895AF92BF92CF9217
:10025000DF92EF92FF920F931F93CF93DF936C0186
:100260007B018B01040F151FEB015E01AE18BF0867
:10027000C017D10759F06991D601ED91FC91019019
:10028000F081E02DC6010995892B79F7C501DF9131
:10029000CF911F910F91FF90EF90DF90CF90BF9083
:1002A000AF900895FC01538D448D252F30E0842FAD
:1002B00090E0821B930B541710F0CF96089501978E
:1002C0000895FC01918D828D981761F0A28DAE0F7B
:1002D000BF2FB11D5D968C91928D9F5F9F73928F02
:1002E00090E008958FEF9FEF0895FC01918D828D2E
:1002F000981731F0828DE80FF11D858D90E00895FB
:100300008FEF9FEF0895FC01918D228D892F90E052
:10031000805C9F4F821B91098F73992708958CE110
:1003200092E00E94830121E0892B09F420E0822FD2
:10033000089580E090E0892B29F00E948F018111BF
:100340000C9400000895FC01A48DA80FB92FB11DD5
:10035000A35ABF4F2C91848D90E001968F739927FB
:10036000848FA689B7892C93A089B1898C918370D9
:1003700080648C93938D848D981306C00288F389D2
:10038000E02D80818F7D80830895EF92FF920F93FF
:100390001F93CF93DF93EC0181E0888F9B8D8C8D31
:1003A00098131AC0E889F989808185FF15C09FB725
:1003B000F894EE89FF896083E889F98980818370E8
:1003C000806480839FBF81E090E0DF91CF911F9197
:1003D0000F91FF90EF900895F62E0B8D10E00F5FB8
:1003E0001F4F0F731127E02E8C8D8E110CC00FB68E
:1003F00007FCFACFE889F989808185FFF5CFCE0126
:100400000E94A301F1CFEB8DEC0FFD2FF11DE35AFC
:10041000FF4FF0829FB7F8940B8FEA89FB898081A8
:100420008062CFCFCF93DF93EC01888D8823B9F022
:10043000AA89BB89E889F9898C9185FD03C08081EF
:1004400086FD0DC00FB607FCF7CF8C9185FFF2CF6C
:10045000808185FFEDCFCE010E94A301E9CFDF911E
:10046000CF91089590E0FC01EE59FE4F2491FC01DC
:10047000E256FE4F3491FC01E657FE4FE491EE2325
:10048000C9F0222339F0233001F1A8F4213019F109
:10049000223029F1F0E0EE0FFF1FEA58FE4FA59140
:1004A000B4918FB7F894EC91611126C030953E233A
:1004B0003C938FBF08952730A9F02830C9F024302D
:1004C00049F7809180008F7D03C0809180008F77F5
:1004D00080938000DFCF84B58F7784BDDBCF84B578
:1004E0008F7DFBCF8091B0008F778093B000D2CF0B
:1004F0008091B0008F7DF9CF3E2BDACF3FB7F894D3
:1005000080919E0190919F01A091A001B091A101C5
:1005100026B5A89B05C02F3F19F00196A11DB11D5E
:100520003FBFBA2FA92F982F8827BC01CD01620F9A
:10053000711D811D911D42E0660F771F881F991F55
:100540004A95D1F708958F929F92AF92BF92CF9222
:10055000DF92EF92FF924B015C010E947E026B01E1
:100560007C010E947E026C197D098E099F09683EFC
:10057000734081059105A8F321E0821A9108A10832
:10058000B10888EEC80E83E0D81EE11CF11C81146E
:100590009104A104B10429F7FF90EF90DF90CF9070
:1005A000BF90AF909F908F900895089508952091E7
:1005B0007901260F3327331F21323105ECF42091C6
:1005C000F201FC0190E080E0243069F082E00895BF
:1005D000A09179012191AC01475A5E4FA40FB52F2C
:1005E000B11D2C930196861798F380917901680FBD
:1005F0006093790180E0089581E008951092F201FE
:1006000081E08093F1011092CC0161E082E10E94CF
:10061000320261E083E10E943202E9EBF0E0808186
:100620008E7F808380818D7F808388E48093B80073
:1006300085E48093BC000895CF93DF9391E090937D
:1006400058018823B9F0C091B800D091BA008091C8
:10065000BC008A7B8093BC0060E082E10E94320291
:1006600060E083E10E9432020E94FE02D093BA0051
:10067000C093B800DF91CF9108958F929F92AF926F
:10068000BF92CF92DF92EF92FF920F931F93CF937F
:10069000DF93D0911B02D13208F0D7C0182FC09140
:1006A0001A020E947E026B017C018091F20181118D
:1006B0006BC082E08093F2011093F1018FEF809381
:1006C000F0011092EF01D093EE01AAEFB1E0EEEC51
:1006D000F1E080E0D81391C01092CD018091CD015E
:1006E000CC0FC82BC093CD018091CC01813009F093
:1006F00088C01092CC010E947E026B017C01809127
:10070000CD018093BB008091F4019091F501A091FF
:10071000F601B091F701892B8A2B8B2BA1F00E9457
:100720007E020091F4011091F5012091F6013091C3
:10073000F7016C197D098E099F090617170728070D
:10074000390708F442C08091BC0083FDD8CF85EC06
:100750008093BC000E947E026B017C018091F201BB
:10076000823009F450C08091F0018F3F09F46FC0CE
:100770008091F001803209F46CC08091F0018033E7
:1007800009F469C084E026C08091F4019091F501DC
:10079000A091F601B091F701892B8A2B8B2B09F4DC
:1007A00084CF0E947E028090F4019090F501A09089
:1007B000F601B090F7016C197D098E099F09861624
:1007C0009706A806B90608F070CF8091F3010E9441
:1007D0001C0385E01092F90110921B021092F8019F
:1007E000DF91CF911F910F91FF90EF90DF90CF900D
:1007F000BF90AF909F908F9008959D9191938F5F40
:1008000069CF85EEA5CF8091F4019091F501A0917B
:10081000F601B091F701892B8A2B8B2B09F49ECF1F
:100820000E947E020091F4011091F5012091F601E1
:100830003091F7016C197D098E099F09061717077A
:100840002807390708F08ACFC0CF81E0C3CF80E006
:10085000C1CF82E0BFCF83E0BDCFCF93DF93EC0168
:100860008B818823A1F0888191E09093F801809397
:100870001A021092F90110921B0281E00E943D03BE
:1008800091E0811190E0892FDF91CF91089510922E
:10089000AB011092AA011092F90110921B020E9462
:1008A000FE0283E291E09093A3018093A20184E28F
:1008B00091E09093A5018093A40181E08B83CE0108
:1008C0000E942D04982F8111CECFDDCF8F929F9261
:1008D000AF92BF92CF92DF92EF92FF920F931F934E
:1008E000CF93DF93D82FC62F142F613208F09CC00E
:1008F0000E947E026B017C018091F20181116FC028
:1009000081E08093F2011093F1019FEF9093F00149
:100910001092EF019C0F9093EE018093CD01809196
:10092000CD01DD0FD82BD093CD018091CC0181304A
:1009300009F07CC01092CC010E947E026B017C0108
:100940008091CD018093BB008091F4019091F501DD
:10095000A091F601B091F701892B8A2B8B2BA1F086
:100960000E947E020091F4011091F5012091F601A0
:100970003091F7016C197D098E099F090617170739
:100980002807390708F44CC08091BC0083FDD8CFFC
:1009900085EC8093BC000E947E026B017C018091FB
:1009A000F201813009F444C08091EF018C1710F4FA
:1009B000C091EF01EEECF1E0ACEAB1E080E08C1325
:1009C00059C08C2FDF91CF911F910F91FF90EF9025
:1009D000DF90CF90BF90AF909F908F9008958091BF
:1009E000F4019091F501A091F601B091F701892BE6
:1009F0008A2B8B2B09F480CF0E947E028090F40119
:100A00009090F501A090F601B090F7016C197D0966
:100A10008E099F0986169706A806B90608F06CCFBE
:100A20008091F3010E941C03C0E0CBCF85EEB1CFD3
:100A30008091F4019091F501A091F601B091F70138
:100A4000892B8A2B8B2B09F4AACF0E947E0200915E
:100A5000F4011091F5012091F6013091F7016C1924
:100A60007D098E099F09061717072807390708F01F
:100A700096CFD6CF91919D938F5FA1CF0895E091AE
:100A8000AB018091AA01E81730F4F0E0E455FE4F85
:100A9000808190E008958FEF9FEF08959091AB01D2
:100AA0008091AA012FEF3FEF981748F4E92FF0E06B
:100AB000E455FE4F208130E09F5F9093AB01C90168
:100AC00008958091AA019091AB01891B990B08951B
:100AD000CF92DF92EF92FF920F931F93CF93DF930A
:100AE0007C01CB018A012091F801222389F0EB01DE
:100AF0006B01C40ED51ECC15DD0569F06991D701D7
:100B0000ED91FC910190F081E02DC7010995F3CFA3
:100B1000642F0E94D702C801DF91CF911F910F91DE
:100B2000FF90EF90DF90CF900895CF93DF931F92C7
:100B3000CDB7DEB769832091F8012223F9F0209127
:100B40001B02203258F021E030E0FC013383228385
:100B500090E080E00F90DF91CF9108958091F901AE
:100B6000E82FF0E0E650FE4F998190838F5F8093ED
:100B7000F90180931B0281E090E0ECCF61E0CE01AF
:100B800001960E94D702F7CF90E080E008952F925F
:100B90003F924F925F926F927F928F929F92AF920D
:100BA000BF92CF92DF92EF92FF920F931F93CF935A
:100BB000DF9300D01F92CDB7DEB73C014B017A0125
:100BC0002B832DB63EB6DC0111968D919C91129728
:100BD0002C9131E03093F80120931A021092F90120
:100BE00010921B021496CD90DC90C416D50668F1C5
:100BF000DC01ED91FC910280F381E02D0995E8166E
:100C0000F90609F06BC08B810E943D0391E08111D0
:100C100065C0892F0FB6F8943EBE0FBE2DBE0F9053
:100C20000F900F90DF91CF911F910F91FF90EF9058
:100C3000DF90CF90BF90AF909F908F907F906F90FC
:100C40005F904F903F902F9008954DB65EB6EDB7F0
:100C5000FEB7EC19FD090FB6F894FEBF0FBEEDBF4D
:100C60008DB79EB701969A838983B12CA12C8701F9
:100C70000A191B09C016D10608F48601F401EA0D11
:100C8000FB1D90E080E05F01A818B908801791076C
:100C900080F48191A981BA818C9381E090E0F3CFB7
:100CA000AE14BF0420F30FB6F8945EBE0FBE4DBE67
:100CB000AACFF30181819281DC01ED91FC91028048
:100CC000F381E02DA80169817A8109950817190738
:100CD00039F30FB6F8945EBE0FBE4DBE90E099CFCB
:100CE000CF93DF9300D0CDB7DEB789836A8321E04D
:100CF00042E050E0BE016F5F7F4F8091ED02909126
:100D0000EE020E94C7050F900F90DF91CF910895DA
:100D10002F923F924F925F926F927F928F929F920B
:100D2000AF92BF92CF92DF92EF92FF920F931F93F9
:100D3000CF93DF93CDB7DEB728970FB6F894DEBF19
:100D40000FBECDBF4C017B018A012DB73EB738875E
:100D50002F83DC0114964D905C904416550630F1BB
:100D6000642F413208F060E241E0F40180810E948A
:100D700066041092AB018093AA018017110609F056
:100D800099C00E0D1F1D0E151F0509F495C0D40145
:100D900011968D919C91DC01ED91FC910284F3857B
:100DA000E02D0995F70181937F01EDCF2DB73EB777
:100DB0003C832B838DB79EB7841995090FB6F894A1
:100DC0009EBF0FBE8DBFADB7BEB711961D01B12C32
:100DD000A12C6801CA18DB084C145D0408F46201F8
:100DE0006C2D613208F060E240E0F40180810E94E5
:100DF00066041092AB018093AA018C151D0491F535
:100E00003A82298291012C0D3D1D3E832D833101B3
:100E10008D819E818615970579F4F701EA0DFB1DFA
:100E200029813A8126153705B1F4AC0CBD1CA016FA
:100E3000B10678F281E017C0D40111968D919C9192
:100E4000DC01ED91FC910284F385E02D0995F3011D
:100E500081933F01DDCFA981BA818D91BA83A983A6
:100E60008193DECF80E0EB81FC810FB6F894FEBF6A
:100E70000FBEEDBF2F8138850FB6F8943EBF0FBE71
:100E80002DBF28960FB6F894DEBF0FBECDBFDF9101
:100E9000CF911F910F91FF90EF90DF90CF90BF9077
:100EA000AF909F908F907F906F905F904F903F900A
:100EB0002F90089580E0DECF81E0DCCF0F931F9369
:100EC000CF93DF931F92CDB7DEB719820091ED0269
:100ED0001091EE0220E041E050E0BE016F5F7F4FD5
:100EE000C8010E94C705882341F041E050E0BE01DF
:100EF0006F5F7F4FC8010E94880689810F90DF9144
:100F0000CF911F910F9108958F929F92AF92BF92B0
:100F1000CF92DF92EF92FF920F931F93CF93DF93C5
:100F2000CDB7DEB763970FB6F894DEBF0FBECDBF67
:100F30008B01FB01349620E2DF011D922A95E9F72F
:100F400044E250E060E070E0F80140835183628346
:100F50007383DC0115964D915D916D917C9118978D
:100F6000448355836683778343E050E060E070E01C
:100F700040875187628773872FB7F8944091A60105
:100F80005091A7016091A8017091A9012FBF408BDA
:100F9000518B628B738B2CE0FE013196DF011D9229
:100FA0002A95E9F76E01BDE0CB0ED11C26E0F601D3
:100FB00011922A95E9F72AE12B8BDC011396ED902B
:100FC000FC9020E041E050E0BE016D5E7F4FC70124
:100FD0000E94C705882331F046E050E0B601C70102
:100FE0000E9488066D857E85072E000C880B990B64
:100FF0000E94281220E030E040E85DE30E94631286
:101000004B015C016F857889072E000C880B990BCA
:101010000E94281220E030E040E85DE30E94631265
:101020006B017C0169897A89072E000C880B990B6A
:101030000E94281220E030E040E85DE30E94631245
:10104000F801848A958AA68AB78AC08ED18EE28EEC
:10105000F38E648F758F868F978F81E063960FB6BE
:10106000F894DEBF0FBECDBFDF91CF911F910F91DE
:10107000FF90EF90DF90CF90BF90AF909F908F90B8
:1010800008950F931F93CF93DF93EC01888199818B
:10109000009759F02A813B812617370730F081E00D
:1010A000DF91CF911F910F9108958B016F5F7F4F5B
:1010B0000E940115009759F0998388831B830A8346
:1010C0002C813D81232B59F7FC011082E8CF80E071
:1010D000E7CFEF92FF920F931F93CF93DF936115AA
:1010E000710541F480E0DF91CF911F910F91FF9046
:1010F000EF90089541155105B1F07B01EC010C8191
:101100001D81040F151FB8010E944108882351F367
:10111000288139818C819D81B701820F931F0E94A4
:10112000C7151D830C8381E0DECFCF93DF93EC01E5
:1011300088819981009711F00E9478141982188291
:101140001D821C821B821A82DF91CF910895CF925B
:10115000DF92EF92FF920F931F93CF93DF93CDB760
:10116000DEB7A1970FB6F894DEBF0FBECDBF7C01EE
:10117000CB01BA01F701118210821382128215820B
:1011800014828E010F5F1F4F22E044E00E94D10FB6
:101190006C01009771F0FC0101900020E9F7319794
:1011A0008F01081B190BB801C7010E94410881116A
:1011B00012C0C7010E949508A1960FB6F894DEBF31
:1011C0000FBECDBFDF91CF911F910F91FF90EF9098
:1011D000DF90CF900895F70115830483B6018081D5
:1011E00091810E94C715E8CFFC0180819181009711
:1011F00011F00C94781408950C9478140F931F93A5
:10120000CF93DF938C01EB0188E2FB0111928A9569
:10121000E9F74BE050E068E371E0CE010E94CE15A3
:101220001B8681E090E0A0E0B0E08C879D87AE87D0
:10123000BF87F80185819681A781B085888B998BBE
:10124000AA8BBB8B83E090E0A0E0B0E08C8B9D8B01
:10125000AE8BBF8B1CA21DA21EA21FA2188E198EC0
:101260001A8E1B8E1C8E1D8E1E8E1F8E8AE097ED91
:10127000A3E2BCE388A399A3AAA3BBA3DF91CF9168
:101280001F910F91089585ED8093BC008091F4012A
:101290009091F501A091F601B091F7010796A11D7B
:1012A000B11D23E0B695A795979587952A95D1F717
:1012B0002091BC0024FD03C01092F20108954091DA
:1012C000F4015091F5016091F6017091F701452B01
:1012D000462B472B69F30097A105B10541F025E3A3
:1012E0002A95F1F700000197A109B109E1CF80919A
:1012F000F3010C941C031F920F920FB60F9211244E
:101300002F933F934F935F936F937F938F939F930D
:10131000AF93BF93EF93FF938CE192E00E94A30100
:10132000FF91EF91BF91AF919F918F917F916F91BD
:101330005F914F913F912F910F900FBE0F901F9093
:1013400018951F920F920FB60F9211242F938F931F
:101350009F93EF93FF93E0912C02F0912D028081F7
:10136000E0913202F091330282FD1BC090818091A6
:1013700035028F5F8F7320913602821741F0E09122
:101380003502F0E0E45EFD4F958F80933502FF91CA
:10139000EF919F918F912F910F900FBE0F901F9003
:1013A00018958081F4CF1F920F920FB60F921124DF
:1013B0002F933F938F939F93AF93BF938091A601F9
:1013C0009091A701A091A801B091A90130919D0130
:1013D00023E0230F2D3758F50196A11DB11D209351
:1013E0009D018093A6019093A701A093A801B093BB
:1013F000A90180919E0190919F01A091A001B091BF
:10140000A1010196A11DB11D80939E0190939F01A2
:10141000A093A001B093A101BF91AF919F918F9133
:101420003F912F910F900FBE0F901F90189526E8B7
:10143000230F0296A11DB11DD2CF1F920F920FB69E
:101440000F9211242F933F934F935F936F937F934A
:101450008F939F93AF93BF93CF93DF93EF93FF93BC
:1014600080919C01C091DD02D0E087FF24C01092E2
:1014700085001092840080919C018F5F80939C0175
:1014800080919C01082E000C990B8C179D0724F469
:1014900080919C018C30C4F18091840090918500F2
:1014A000049680349C4908F47AC08091840090911D
:1014B0008500049676C080919C01082E000C990B43
:1014C0008C179D07C4F6E0919C018E2FEE0F990BAF
:1014D000FC01EE0FFF1FE80FF91FE754FD4F80815D
:1014E00086FFC9CFE0919C018E2FEE0F990BFC0176
:1014F000EE0FFF1FE80FF91FE754FD4F808160E0FA
:101500008F730E943202B7CF209184003091850002
:10151000E0919C018E2FEE0F990BFC01EE0FFF1F47
:10152000E80FF91FE754FD4F81819281820F931FCD
:101530009093890080938800E0919C018E2FEE0F9C
:10154000990BFC01EE0FFF1FE80FF91FE754FD4F49
:10155000808186FF11C0E0919C018E2FEE0F990BC8
:10156000FC01EE0FFF1FE80FF91FE754FD4F8081CC
:1015700061E08F730E943202FF91EF91DF91CF9172
:10158000BF91AF919F918F917F916F915F914F919B
:101590003F912F910F900FBE0F901F90189580E4F0
:1015A0009CE990938900809388008FEF80939C0141
:1015B000E3CF1F920F920FB60F9211242F933F93F8
:1015C0004F935F936F937F938F939F93AF93BF934B
:1015D000EF93FF938091B900887F803609F44AC069
:1015E000F0F5883209F4A7C018F5803109F49BC0E2
:1015F000B8F4882309F4F9C0883009F494C0FF9145
:10160000EF91BF91AF919F918F917F916F915F917A
:101610004F913F912F910F900FBE0F901F901895F3
:10162000883109F488C0803251F78093F00114C0EA
:10163000803409F49DC040F48033B9F38833F9F65F
:101640008093F00185ECB0C0803509F485C0883501
:1016500009F496C0883499F60E944309D0CF88399E
:1016600009F48CC038F5883729F050F4883611F029
:10167000803729F683E08093F20110929B0157C0D6
:10168000883809F47BC0803919F0803809F0B7CF69
:1016900080919B01803208F071C0E0919B0181E054
:1016A0008E0F80939B018091BB00F0E0E558FE4FC8
:1016B00080833DC0803B39F0E0F4803A09F479C082
:1016C000883A09F09CCF84E08093F20110927A016D
:1016D00010927901E091A201F091A3010995809106
:1016E000790181110FC081E0809379011092590135
:1016F00009C0803C09F4A6CF883C09F4A3CF883BFD
:1017000009F07DCFE0917A0181E08E0F80937A011C
:10171000F0E0E75AFE4F80818093BB0090917A0100
:101720008091790129C08091CD018093BB0085EC27
:101730008093BC0064CF9091EF018091EE019817E7
:1017400058F5E091EF0181E08E0F8093EF01F0E01A
:10175000E253FE4F8081E9CFE091EF0181E08E0FEF
:101760008093EF018091BB00F0E0E253FE4F808355
:101770009091EF018091EE019817C8F285E8D8CFDB
:10178000E091EF0181E08E0F8093EF018091BB002B
:10179000F0E0E253FE4F80838091F10181115CCF34
:1017A00081E08093CC0184EA8093BC001092F20126
:1017B00026CF85EC8093BC001092F20180919B01B2
:1017C000803230F4E0919B01F0E0E558FE4F10824A
:1017D00060919B0170E0E091A401F091A5018BE77D
:1017E00091E0099510929B010ACF1092F00134CF3D
:1017F00010921F0210921E0288EE93E0A0E0B0E06B
:101800008093200290932102A0932202B09323029E
:101810002AE031E030931D0220931C0225EC30E0D9
:10182000309329022093280224EC30E030932B02DD
:1018300020932A0220EC30E030932D0220932C02DA
:1018400021EC30E030932F0220932E0222EC30E086
:10185000309331022093300226EC30E03093330293
:101860002093320210923502109236021092370203
:10187000109238021092E1021092E0028093E2028C
:101880009093E302A093E402B093E5028CE191E02F
:101890009093DF028093DE028091DD028C30C8F5E8
:1018A00091E0980F9093DD028093F50290E0FC01A7
:1018B000EE0FFF1FE80FF91FE754FD4F88EB9BE089
:1018C000928381838EE291E09093EB028093EA020F
:1018D00087E390E0A0E0B0E08093EF029093F00205
:1018E000A093F102B093F20286E090E00E94DC1334
:1018F000FC0188E280838EED92E0928381831382E3
:1019000080E290E095838483F093EE02E093ED0211
:1019100008958FEF8093F502D5CFCF93DF93CDB7A6
:10192000DEB7C756D1090FB6F894DEBF0FBECDBFE4
:10193000789484B5826084BD84B5816084BD85B5AA
:10194000826085BD85B5816085BD80916E008160B6
:1019500080936E001092810080918100826080935C
:10196000810080918100816080938100809180005E
:101970008160809380008091B10084608093B10089
:101980008091B00081608093B00080917A00846083
:1019900080937A0080917A00826080937A008091AF
:1019A0007A00816080937A0080917A0080688093C9
:1019B0007A001092C100E0912C02F0912D0282E099
:1019C0008083E0912802F09129021082E0912A029E
:1019D000F0912B0280E1808310923402E09130027A
:1019E000F091310286E08083E0912E02F0912F0287
:1019F000808180618083E0912E02F0912F028081AE
:101A000088608083E0912E02F0912F0280818068AF
:101A10008083E0912E02F0912F0280818F7D808360
:101A20008DE00E9404018CE00E9404018091F50287
:101A30008C3008F050C08BE00E9404018091F502C8
:101A4000282F30E0F901EE0FFF1FE20FF31FE754DC
:101A5000FD4F9081907C9B6090831092F6021092D3
:101A6000F7022CE0622F0E94CA13829FB00111245A
:101A700030E020E0AB01420F531FFA01EE0FFF1FD1
:101A8000E40FF51FE754FD4F908196FD16C02F5FC0
:101A90003F4F2C30310571F781110FC0109280003B
:101AA00082E0809381001092850010928400B19AA8
:101AB00080916F00826080936F00E091F5028E2F1D
:101AC00090E0FC01EE0FFF1FE80FF91FE754FD4FF8
:101AD0008081806480830091ED021091EE0210926B
:101AE000AB011092AA011092F90110921B020E9400
:101AF000FE0283E291E09093A3018093A20184E22D
:101B000091E09093A5018093A40181E0D801139600
:101B10008C93C8010E942D04882389F10E945E07DE
:101B2000803A19F51092F4021092F30260E08DE30E
:101B300090E00E9470066EE170E080E090E00E940C
:101B4000A30260E28FE390E00E9470066EE170E015
:101B500080E090E00E94A3020E945E07803AE1F0DC
:101B60006AE070E080E090E0F5CF68EE73E080E03E
:101B700090E00E94A3020E945E07803A99F242E13F
:101B800050E06FE371E08CE192E00E94250161E09A
:101B90008DE00E943202FFCF62E370E080E090E0CF
:101BA0000E94A30260E08EE390E00E9470066AE06B
:101BB00070E080E090E00E94A30260E087E090E0A7
:101BC0000E94700660E08FE390E00E9470066AE079
:101BD00070E080E090E00E94A3028CE090E090939F
:101BE000F4028093F3026CE08DE390E00E947006B3
:101BF0006EE170E080E090E00E94A30264E170E09A
:101C000080E090E00E94A30261E08CE00E9432023A
:101C10007E01B9E4EB0EF11C8E010B5A1F4F6E01D1
:101C2000E1E6CE0ED11C8AE1382EFE01BD968CE194
:101C3000DF011D928A95E9F724E230E040E050E0B0
:101C40002DA33EA34FA358A78091EF029091F002DD
:101C5000A091F102B091F20289A79AA7ABA7BCA705
:101C60002FB7F8948091A6019091A701A091A801A7
:101C7000B091A9012FBF8DAB9EABAFABB8AF8CE0DD
:101C8000D701E82F1D92EA95E9F723E030E040E024
:101C900050E02DA73EA74FA758ABFE013196DF01BC
:101CA0001D928A95E9F786E0F80111928A95E9F785
:101CB000D6013C92A090ED02B090EE0220E041E00F
:101CC00050E0B601C5010E94C705882331F046E007
:101CD00050E0B801C5010E948806F8016081718159
:101CE000072E000C880B990B0E94281220E030E090
:101CF00040E85DE30E9463122B013C01D80112967B
:101D00006D917C91072E000C880B990B0E94281274
:101D100020E030E040E85DE30E9463124B015C018B
:101D2000F80164817581072E000C880B990B0E94C5
:101D3000281220E030E040E85DE30E94631249AEE3
:101D40005AAE6BAE7CAE21968CAE9DAEAEAEBFAE43
:101D5000219725966CAF7DAF8EAF9FAF2597FE0183
:101D600039968CE1DF011D928A95E9F724E230E093
:101D700040E050E029833A834B835C838091EF02FB
:101D80009091F002A091F102B091F2028D839E83B6
:101D9000AF83B8872FB7F8948091A6019091A701DF
:101DA000A091A801B091A9012FBF898B9A8BAB8B11
:101DB000BC8B8CE0D801E82F1D92EA95E9F72AE068
:101DC00030E040E050E029873A874B875C87D701B5
:101DD0001D928A95E9F786E0F60111928A95E9F756
:101DE00088E2A8968FAFA897A090ED02B090EE027F
:101DF00020E041E050E0BE0169597F4FC5010E94DB
:101E0000C705882331F046E050E0B601C5010E94C5
:101E10008806D6016D917C91072E000C880B990BDA
:101E20000E94281220E030E048EC52E40E9458134F
:101E30002B013C01F60162817381072E000C880B97
:101E4000990B0E94281220E030E048EC52E40E94F6
:101E500058134B015C01D60114966D917C91072EAD
:101E6000000C880B990B0E94281220E030E048EC0F
:101E700052E40E9458134D8A5E8A6F8A788E898E4A
:101E80009A8EAB8EBC8E6D8F7E8F8F8F98A3F8014C
:101E900011821082138212821582148270E060E037
:101EA000C8010E944108811170C0C8010E949508B4
:101EB00049AD5AAD6BAD7CADC7010E94A708F701D3
:101EC0004481558160817181C8010E946908C70100
:101ED0000E94F40841E050E062E571E0C8010E9410
:101EE000690821964CAD5DAD6EAD7FAD2197C70100
:101EF0000E94A708D70114964D915C9115976D919A
:101F00007C91C8010E946908C7010E94F40841E061
:101F100050E062E571E0C8010E94690825964CAD69
:101F20005DAD6EAD7FAD2597C7010E94A708F70193
:101F30004481558160817181C8010E946908C7018F
:101F40000E94F408D80114964D915C9115976D91FB
:101F50007C918CE192E00E94250142E050E064E532
:101F600071E08CE192E00E942501C8010E94F40812
:101F700080E090E0892B09F458CE0E948F018823DD
:101F800009F451CE0E9400004ECED80115961C9245
:101F90001E92149766E571E08D919C910E94C71581
:101FA00087CFEF920F931F93CF93DF93E80134E035
:101FB00047FD34E1042E000C550B57FF03C051952B
:101FC00041955109E32E022F242FAE010E94EF0FFD
:101FD000CE01DF91CF911F910F91EF900895A9E06D
:101FE000B0E0E5EFFFE00C9427136A01F22EB02E6B
:101FF000102FFBE3AF2EA01608F41BE31F5F012F89
:1020000027E0AE014F5F5F4F0E944E11BC018981F6
:10201000982F9970913009F43FC09BE2E1FC04C015
:102020009E2D9170E0FC3AC05E2D5071E82FE87053
:1020300083FF46C084E0911101C083E0EF2DE81BCF
:102040008F1508F0E0E0D6018E2F20E2552351F1E4
:10205000992329F0D6019C93C60101966C01960143
:102060002D5F3F4FE2FE24C08EE4D6018C9391E4B5
:1020700011969C93119712968C93D9018E2F90E212
:1020800081111BC0E20FF32FF11D10828EEF9FEF25
:102090002996ECE00C9443139DE2C6CF90E2C4CFA6
:1020A0002D9381508111FCCFCE0ED11CE0E0D0CF1A
:1020B0008EE6D6018C9391E6DBCF9D938150E0CFE5
:1020C000482F447082FF3DC084E0911101C083E03D
:1020D0008F1510F4EF2DE81BD6018E2F20E255232B
:1020E00009F1992329F0D6019C93C60101966C0150
:1020F00096012D5F3F4FE2FE1BC089E4D6018C9311
:102100008EE411968C93119786E412968C93D901E4
:102110008E2F90E2882309F4B5CF9D938150FACF9A
:102120002D9381508111FCCFCE0ED11CE0E0D9CF90
:1021300089E6D6018C938EE611968C93119786E6EC
:10214000E4CF9B0177FF02C030E020E0A1E0B0E0E7
:10215000911102C0B0E0A0E0F9013196AE0FBF1FAF
:102160008B2C912CBB2009F461C05401EFEFAE1A07
:10217000BE0AAA0DBB1DFA161B0619F014F04F2D4E
:102180004A1B511188C0E3FC59C07601A42FB0E26C
:10219000A1114FC0C40ED11C992309F45BC040E0CB
:1021A000D6011196F60190836D01552309F448C0BC
:1021B000012F060F9A81582F507184FF03C091336D
:1021C00009F4015010160CF047C0093008F008E07F
:1021D000EEE2FE2E5B01A01AB10885019194819474
:1021E00091082F3F320729F4D601FC92F60131966F
:1021F0006F016217730794F1021713077CF5DB0177
:10220000A21BB30BAA24A394B12CAC0EBD1EAA0D25
:10221000BB1D11968C9121503109D60111962815BC
:102220003905F4F0F60180836D01DBCFB12CA12CD0
:10223000A0CFF701B1937F01A150AACF9111B0CFE8
:10224000D601942F50E302C05D9391509111FCCFC1
:10225000C40ED11C40E0ACCF01E0BACF80E3DBCFAD
:102260006217730731F4963388F4953311F45523CC
:1022700069F0F6018083FD01842F90E2811108C08E
:10228000A40FB11D1C9290E080E002CF81E3F1CF5A
:1022900091938150F3CF911183CF8ACF283008F0EA
:1022A00027E03327DA01990F311D87FD91600096F1
:1022B0006105710539F432602E5F3D9330E32A9554
:1022C000E1F708959F3F30F080387105610509F00E
:1022D0003C5F3C5F3D93913008F08068911DDF9337
:1022E000CF931F930F93FF92EF92192F987F96959C
:1022F000E92F96959695E90FFF27EE53FF4F992703
:102300003327EE24FF24A701E701059008940794E2
:1023100028F4360FE71EF81E491F511D660F771F60
:10232000881F991F0694A1F70590079428F4E70EDB
:10233000F81E491F561FC11D770F881F991F661F62
:102340000694A1F70590079428F4F80E491F561F2C
:10235000C71FD11D880F991F661F771F0694A1F70D
:102360000590079420F4490F561FC71FD81F990FD7
:10237000661F771F881F0694A9F784911095177020
:1023800041F0D695C79557954795F794E7941A95D8
:10239000C1F7E8E6F0E068941590159135916591E4
:1023A000959105907FE27395E118F10A430B560B66
:1023B000C90BD009C0F7E10CF11E431F561FC91FFE
:1023C000D01D7EF4703311F48A95E6CFE894015065
:1023D00030F0080F0AF40027021708F4202F239585
:1023E000022F7A3328F079E37D932A95E9F710C01C
:1023F0007D932A9589F60694979567953795179555
:102400001794E118F10A430B560BC90BD00998F049
:1024100023957E9173957A3308F070E37C932013B3
:10242000B8F77E9170617D9330F0839571E37D9371
:1024300070E32A95E1F71124EF90FF900F911F911F
:10244000CF91DF91992787FD90950895E89409C071
:1024500097FB3EF490958095709561957F4F8F4FD7
:102460009F4F9923A9F0F92F96E9BB279395F695ED
:10247000879577956795B795F111F8CFFAF4BB0F6B
:1024800011F460FF1BC06F5F7F4F8F4F9F4F16C0CF
:10249000882311F096E911C0772321F09EE8872F59
:1024A000762F05C0662371F096E8862F70E060E015
:1024B0002AF09A95660F771F881FDAF7880F96958E
:1024C000879597F908950E9476120C94E7120E945E
:1024D000D91238F00E94E01220F0952311F00C94EC
:1024E000D0120C94D61211240C941B130E94F812D3
:1024F00070F3959FC1F3950F50E0551F629FF00157
:10250000729FBB27F00DB11D639FAA27F00DB11D6F
:10251000AA1F649F6627B00DA11D661F829F2227F8
:10252000B00DA11D621F739FB00DA11D621F839F7F
:10253000A00D611D221F749F3327A00D611D231F55
:10254000849F600D211D822F762F6A2F11249F57A3
:1025500050409AF0F1F088234AF0EE0FFF1FBB1FA6
:10256000661F771F881F91505040A9F79E3F510565
:1025700080F00C94D0120C941B135F3FE4F3983E50
:10258000D4F3869577956795B795F795E7959F5F0F
:10259000C1F7FE2B880F911D9695879597F90895A1
:1025A00097F99F6780E870E060E008959FEF80EC06
:1025B000089500240A9416161706180609060895A9
:1025C00000240A9412161306140605060895092E0F
:1025D0000394000C11F4882352F0BB0F40F4BF2B7E
:1025E00011F460FF04C06F5F7F4F8F4F9F4F0895BE
:1025F00057FD9058440F551F59F05F3F71F04795B4
:10260000880F97FB991F61F09F3F79F08795089598
:10261000121613061406551FF2CF4695F1DF08C0B7
:10262000161617061806991FF1CF869571056105D4
:1026300008940895E894BB2766277727CB0197F97C
:1026400008952F923F924F925F926F927F928F9256
:102650009F92AF92BF92CF92DF92EF92FF920F9331
:102660001F93CF93DF93CDB7DEB7CA1BDB0B0FB63B
:10267000F894DEBF0FBECDBF09942A8839884888F8
:102680005F846E847D848C849B84AA84B984C8848E
:10269000DF80EE80FD800C811B81AA81B981CE0F85
:1026A000D11D0FB6F894DEBF0FBECDBFED0108956A
:1026B0000E946C130C94E7120E94E01258F00E94E2
:1026C000D91240F029F45F3F29F00C94D012511137
:1026D0000C941B130C94D6120E94F81268F39923E1
:1026E000B1F3552391F3951B550BBB27AA2762170E
:1026F0007307840738F09F5F5F4F220F331F441F1B
:10270000AA1FA9F335D00E2E3AF0E0E832D091504E
:102710005040E695001CCAF72BD0FE2F29D0660F3B
:10272000771F881FBB1F261737074807AB07B0E87E
:1027300009F0BB0B802DBF01FF2793585F4F3AF084
:102740009E3F510578F00C94D0120C941B135F3F00
:10275000E4F3983ED4F3869577956795B795F7950A
:102760009F5FC9F7880F911D9695879597F90895F2
:10277000E1E0660F771F881FBB1F6217730784078E
:10278000BA0720F0621B730B840BBA0BEE1F88F79D
:10279000E0950895991B79E004C0991F961708F0F9
:1027A000961B881F7A95C9F780950895EE0FFF1F35
:1027B0000590F491E02D09940F931F93CF93DF932D
:1027C0008230910510F482E090E0E091FA02F091FD
:1027D000FB0230E020E0B0E0A0E0309799F4211552
:1027E000310509F44AC0281B390B24303105D8F5CE
:1027F0008A819B816115710589F1FB019383828335
:10280000FE0111C04081518102811381481759078F
:10281000E0F04817590799F4109761F012960C935D
:10282000129713961C933296CF01DF91CF911F918F
:102830000F9108950093FA021093FB02F4CF211533
:10284000310551F04217530738F0A901DB019A0115
:10285000BD01DF01F801C1CFEF01F9CF9093FB0279
:102860008093FA02CDCFFE01E20FF31F8193919383
:102870002250310939832883D7CF2091F802309133
:10288000F902232B41F4209102013091030130938E
:10289000F9022093F80220910001309101012115E5
:1028A000310541F42DB73EB7409104015091050127
:1028B000241B350BE091F802F091F902E217F307BF
:1028C000A0F42E1B3F0B2817390778F0AC014E5FA0
:1028D0005F4F2417350748F04E0F5F1F5093F902E2
:1028E0004093F802819391939FCFF0E0E0E09CCF7A
:1028F000CF93DF930097E9F0FC01329713821282A5
:10290000A091FA02B091FB02ED0130E020E01097B7
:10291000A1F420813181820F931F2091F802309120
:10292000F9022817390709F061C0F093F902E09322
:10293000F802DF91CF910895EA01CE17DF07E8F59D
:102940004A815B819E0141155105B1F7E901FB8385
:10295000EA8349915991C40FD51FEC17FD0761F423
:10296000808191810296840F951FE9019983888364
:10297000828193819B838A83F0E0E0E012968D91BF
:102980009C9113970097B9F52D913C911197CD012A
:102990000296820F931F2091F8023091F9022817B6
:1029A000390739F6309751F51092FB021092FA026E
:1029B000B093F902A093F802BCCFD383C2834081C5
:1029C0005181840F951FC817D90761F44E5F5F4F7F
:1029D00088819981480F591F518340838A819B8147
:1029E000938382832115310509F0B0CFF093FB0268
:1029F000E093FA029ECFFD01DC01C0CF1382128268
:102A0000D7CFB0E0A0E0E7E0F5E10C9423138C0110
:102A1000009751F4CB010E94DC138C01C801CDB7A3
:102A2000DEB7E0E10C943F13FC01E60FF71F9C01B9
:102A300022503109E217F30708F49DC0D901CD9166
:102A4000DC911197C617D70798F0C530D10530F340
:102A5000CE0104978617970708F3C61BD70B22975A
:102A6000C193D1936D937C93CF010E947814D6CFFC
:102A70005B01AC1ABD0A4C018C0E9D1EA091FA029E
:102A8000B091FB02512C412CF12CE12C109731F527
:102A90008091F8029091F9028815990509F05CC0BF
:102AA0004616570608F058C0809100019091010128
:102AB000009741F48DB79EB74091040150910501F4
:102AC000841B950BE817F90708F055C0F093F9023D
:102AD000E093F802F90171836083A0CF8D919C91FE
:102AE000119712966C90129713967C901397A815D5
:102AF000B90559F56C0142E0C40ED11CCA14DB04BF
:102B000020F1AC014A195B09DA011296159780F0A1
:102B10006282738251834083D9016D937C93E11467
:102B2000F10471F0D7011396FC93EE93129776CFD0
:102B300022968C0F9D1FF90191838083F301EFCFC3
:102B4000F093FB02E093FA0269CF4816590608F4A5
:102B50002C017D01D3019ACFCB010E94DC137C01B3
:102B6000009749F0AE01B8010E94BE15C8010E944D
:102B70007814870153CF10E000E050CFFB01DC0157
:102B800002C001900D9241505040D8F70895FB01CA
:102B9000DC0101900D920020E1F70895FB01DC01BA
:102BA0004150504048F001900D920020C9F701C0FB
:102BB0001D9241505040E0F70895F894FFCF000077
:102BC000FC02800000000000C50125015201120234
:102BD0008301610175010000000095056805C405C9
:102BE0003E0561054E053F0500000000D502FC08CA
:102BF000D6028407FE08424E4F303535004E6F2016
:102C0000424E4F30353520646574656374656400E9
:062C10002C000D0A00007B
:107E0000112484B714BE81FFF0D085E080938100F7
:107E100082E08093C00088E18093C10086E0809377
:107E2000C20080E18093C4008EE0C9D0259A86E02C
:107E300020E33CEF91E0309385002093840096BBD3
:107E4000B09BFECF1D9AA8958150A9F7CC24DD24C4
:107E500088248394B5E0AB2EA1E19A2EF3E0BF2EE7
:107E6000A2D0813461F49FD0082FAFD0023811F036
:107E7000013811F484E001C083E08DD089C08234E0
:107E800011F484E103C0853419F485E0A6D080C0E4
:107E9000853579F488D0E82EFF2485D0082F10E0AE
:107EA000102F00270E291F29000F111F8ED06801E7
:107EB0006FC0863521F484E090D080E0DECF843638
:107EC00009F040C070D06FD0082F6DD080E0C81688
:107ED00080E7D80618F4F601B7BEE895C0E0D1E017
:107EE00062D089930C17E1F7F0E0CF16F0E7DF06D8
:107EF00018F0F601B7BEE89568D007B600FCFDCFD4
:107F0000A601A0E0B1E02C9130E011968C91119780
:107F100090E0982F8827822B932B1296FA010C0160
:107F200087BEE89511244E5F5F4FF1E0A038BF0790
:107F300051F7F601A7BEE89507B600FCFDCF97BE46
:107F4000E89526C08437B1F42ED02DD0F82E2BD052
:107F50003CD0F601EF2C8F010F5F1F4F84911BD097
:107F6000EA94F801C1F70894C11CD11CFA94CF0C13
:107F7000D11C0EC0853739F428D08EE10CD085E9AC
:107F80000AD08FE07ACF813511F488E018D01DD067
:107F900080E101D065CF982F8091C00085FFFCCF94
:107FA0009093C60008958091C00087FFFCCF809118
:107FB000C00084FD01C0A8958091C6000895E0E648
:107FC000F0E098E1908380830895EDDF803219F02E
:107FD00088E0F5DFFFCF84E1DECF1F93182FE3DFCA
:107FE0001150E9F7F2DF1F91089580E0E8DFEE27F6
:047FF000FF270994CA
:027FFE00040479
:00000001FF
